:020000040000fa
:080000000002040000000000f2
:020000040000fa
:0400080044030000ad
:020000040000fa
:04000c008603000067
:020000040000fa
:04001000c603000023
:020000040000fa
:040014006403000081
:020000040000fa
:04001800a60300003b
:020000040000fa
:04001c0034050000a7
:020000040000fa
:04002000e6030000f3
:020000040000fa
:04002400340500009f
:020000040000fa
:04002800340500009b
:020000040000fa
:04002c000e030000bf
:020000040000fa
:040030003405000093
:020000040000fa
:04003400340500008f
:020000040000fa
:04003800340500008b
:020000040000fa
:04003c003405000087
:020000040000fa
:040040003405000083
:020000040000fa
:04004400340500007f
:020000040000fa
:04004800340500007b
:020000040000fa
:04004c003405000077
:020000040000fa
:040050003405000073
:020000040000fa
:04005400340500006f
:020000040000fa
:04005800340500006b
:020000040000fa
:04005c003405000067
:020000040000fa
:040060003405000063
:020000040000fa
:04006400340500005f
:020000040000fa
:04006800340500005b
:020000040000fa
:04006c003405000057
:020000040000fa
:040070003405000053
:020000040000fa
:04007400340500004f
:020000040000fa
:04007800340500004b
:020000040000fa
:04007c003405000047
:020000040000fa
:040080003405000043
:020000040000fa
:04008400340500003f
:020000040000fa
:04008800340500003b
:020000040000fa
:04008c003405000037
:020000040000fa
:040090003405000033
:020000040000fa
:04009400340500002f
:020000040000fa
:04009800340500002b
:020000040000fa
:04009c003405000027
:020000040000fa
:0400a0003405000023
:020000040000fa
:0400a400340500001f
:020000040000fa
:0400a800340500001b
:020000040000fa
:0400ac003405000017
:020000040000fa
:0400b0003405000013
:020000040000fa
:0400b400340500000f
:020000040000fa
:0400b800340500000b
:020000040000fa
:0400bc003405000007
:020000040000fa
:0400c0003405000003
:020000040000fa
:0400c40034050000ff
:020000040000fa
:0400c80034050000fb
:020000040000fa
:0400cc0034050000f7
:020000040000fa
:0400d00034050000f3
:020000040000fa
:0400d40034050000ef
:020000040000fa
:0400d80034050000eb
:020000040000fa
:0400dc0034050000e7
:020000040000fa
:0400e00034050000e3
:020000040000fa
:0400e40034050000df
:020000040000fa
:0400e80034050000db
:020000040000fa
:0400ec0034050000d7
:020000040000fa
:0400f00034050000d3
:020000040000fa
:0400f40034050000cf
:020000040000fa
:0400f80034050000cb
:020000040000fa
:0400fc0034050000c7
:020000040000fa
:0401000034050000c2
:020000040000fa
:0401040034050000be
:020000040000fa
:0401080034050000ba
:020000040000fa
:04010c0034050000b6
:020000040000fa
:0401100034050000b2
:020000040000fa
:0401140034050000ae
:020000040000fa
:0401180034050000aa
:020000040000fa
:04011c0034050000a6
:020000040000fa
:0401200034050000a2
:020000040000fa
:04012400340500009e
:020000040000fa
:04012800340500009a
:020000040000fa
:04012c003405000096
:020000040000fa
:040130003405000092
:020000040000fa
:04013400340500008e
:020000040000fa
:04013800340500008a
:020000040000fa
:04013c003405000086
:020000040000fa
:040140003405000082
:020000040000fa
:04014400340500007e
:020000040000fa
:04014800340500007a
:020000040000fa
:04014c003405000076
:020000040000fa
:040150003405000072
:020000040000fa
:04015400340500006e
:020000040000fa
:04015800340500006a
:020000040000fa
:04015c003405000066
:020000040000fa
:040160003405000062
:020000040000fa
:04016400340500005e
:020000040000fa
:04016800340500005a
:020000040000fa
:04016c003405000056
:020000040000fa
:040170003405000052
:020000040000fa
:04017400340500004e
:020000040000fa
:04017800340500004a
:020000040000fa
:04017c003405000046
:020000040000fa
:040180003405000042
:020000040000fa
:04018400340500003e
:020000040000fa
:04018800340500003a
:020000040000fa
:04018c003405000036
:020000040000fa
:040190003405000032
:020000040000fa
:04019400d40400008f
:020000040000fa
:04019800340500002a
:020000040000fa
:04019c003405000026
:020000040000fa
:0401a0003405000022
:020000040000fa
:0401a400340500001e
:020000040000fa
:0401a800340500001a
:020000040000fa
:0401ac003405000016
:020000040000fa
:0401b0003405000012
:020000040000fa
:0401b400340500000e
:020000040000fa
:0401b800340500000a
:020000040000fa
:0401bc003405000006
:020000040000fa
:0401c0003405000002
:020000040000fa
:0401c40034050000fe
:020000040000fa
:0401c80034050000fa
:020000040000fa
:0401cc0034050000f6
:020000040000fa
:0401d00034050000f2
:020000040000fa
:0401d40034050000ee
:020000040000fa
:0401d80034050000ea
:020000040000fa
:0401dc0034050000e6
:020000040000fa
:0401e00020040000f7
:020000040000fa
:0401e4005c040000b7
:020000040000fa
:0401e80034050000da
:020000040000fa
:0401ec0034050000d6
:020000040000fa
:0401f00034050000d2
:020000040000fa
:0401f40034050000ce
:020000040000fa
:0401f80034050000ca
:020000040000fa
:0401fc0034050000c6
:020000040000fa
:0402000034050000c1
:020000040000fa
:0402040034050000bd
:020000040000fa
:0402080034050000b9
:020000040000fa
:04020c0034050000b5
:020000040000fa
:0402100034050000b1
:020000040000fa
:0402140034050000ad
:020000040000fa
:0402180034050000a9
:020000040000fa
:04021c0034050000a5
:020000040000fa
:0402200034050000a1
:020000040000fa
:04022400340500009d
:020000040000fa
:040228003405000099
:020000040000fa
:04022c003405000095
:020000040000fa
:040230003405000091
:020000040000fa
:04023400340500008d
:020000040000fa
:040238003405000089
:020000040000fa
:04023c003405000085
:020000040000fa
:040240003405000081
:020000040000fa
:04024400340500007d
:020000040000fa
:040248003405000079
:020000040000fa
:04024c003405000075
:020000040000fa
:040250003405000071
:020000040000fa
:04025400340500006d
:020000040000fa
:040258003405000069
:020000040000fa
:04025c003405000065
:020000040000fa
:040260003405000061
:020000040000fa
:04026400340500005d
:020000040000fa
:040268003405000059
:020000040000fa
:04026c003405000055
:020000040000fa
:040270003405000051
:020000040000fa
:04027400340500004d
:020000040000fa
:040278003405000049
:020000040000fa
:04027c003405000045
:020000040000fa
:040280003405000041
:020000040000fa
:04028400340500003d
:020000040000fa
:040288003405000039
:020000040000fa
:04028c003405000035
:020000040000fa
:040290003405000031
:020000040000fa
:04029400340500002d
:020000040000fa
:040298003405000029
:020000040000fa
:04029c003405000025
:020000040000fa
:0402a0003405000021
:020000040000fa
:0402a400340500001d
:020000040000fa
:0402a8003405000019
:020000040000fa
:0402ac003405000015
:020000040000fa
:0402b0003405000011
:020000040000fa
:0402b400340500000d
:020000040000fa
:0402b8003405000009
:020000040000fa
:0402bc003405000005
:020000040000fa
:0402c0003405000001
:020000040000fa
:0402c40034050000fd
:020000040000fa
:0402c80034050000f9
:020000040000fa
:0402cc0034050000f5
:020000040000fa
:0402d00034050000f1
:020000040000fa
:0402d40034050000ed
:020000040000fa
:0402d80034050000e9
:020000040000fa
:0402dc0034050000e5
:020000040000fa
:0402e00034050000e1
:020000040000fa
:0402e40034050000dd
:020000040000fa
:0402e80034050000d9
:020000040000fa
:0402ec0034050000d5
:020000040000fa
:0402f00034050000d1
:020000040000fa
:0402f40034050000cd
:020000040000fa
:0402f80034050000c9
:020000040000fa
:0402fc0034050000c5
:020000040000fa
:0403000034050000c0
:020000040000fa
:0403040034050000bc
:020000040000fa
:0403080034050000b8
:020000040000fa
:04030c0034050000b4
:020000040000fa
:0403100034050000b0
:020000040000fa
:0403140034050000ac
:020000040000fa
:0403180034050000a8
:020000040000fa
:04031c0034050000a4
:020000040000fa
:0403200034050000a0
:020000040000fa
:04032400340500009c
:020000040000fa
:10040000af1121002efe22000e0188000000000026
:10041000000020000000e000020032000001200087
:100420002002880014000700910107000000e0008e
:1004300003003a00002421000100200002003700e0
:100440000000200001002000810f70000100320038
:100450000f000700000020000000e0000200320052
:100460000000020000000000b014020000000000c4
:100470000040da000000fe00200020000000e00044
:1004800002003200100020009001880000000600e9
:10049000a1028800800478000000eb001f003700f4
:1004a000e284440054a0b4009905ba00e2844400f8
:1004b00054a0b4009906ba00e284440054a0b400e9
:1004c0000006eb00476fde00fd07b200ae018800ba
:1004d000636ce10003003a000ad801000000eb0061
:1004e0000e003700606ce10008003a00004deb00a0
:1004f0000a05e800020039003420ec000af0a000f0
:100500008b05e900f9ff3e00040037006168e10057
:10051000010032000086eb000b00070019c7ba008b
:100520001905ba000e04e00003003a000a00e000da
:10053000dbff3a0000000600fe07b200ae028800b2
:100540008a047800f5ff37000cd0a300e20f4d00bd
:100550001c003b0089027800354dba000a05e8000e
:10056000020039003420ec000af0a0008b05e900fd
:100570000f003200254dba000a05e80002003900dc
:100580003420ec000af0a0008b05e90008003200de
:100590000c00e0000600320015cdba000a05e800a4
:1005a000020039003420ec000af0a0008b05e900bd
:1005b0008984e80054a0b4000b00e000e2ff3a0098
:1005c000000006009902ba00055d78008b05e9007d
:1005d000f7ff3200c82ade00055d78008b05e900d0
:1005e000f3ff32000c00e000f1ff320019ddba0029
:1005f000eeff3700000000000000000000000000d7
:1006000000000000000000000000000000000000ea
:100610000000000000000000000000003600f800ac
:10062000809fbe00829fbe00849fbe00869fbe004a
:100630000000fa00708280000000e000020032003a
:1006400070828000000001009011210010407800ad
:100650008040e800901121000148780080112100bd
:1006600011c0b300014878000028a9000080fa00fa
:100670004f03be004f02be004f01be004f00be0040
:100680003600f900004006003600f800809fbe00ea
:10069000829fbe00849fbe00869fbe000000fa00bd
:1006a000c028a9000000eb00bf0807000080fa0086
:1006b0004f03be004f02be004f01be004f00be0000
:1006c0003600f900004006003600f800809fbe00aa
:1006d000829fbe00849fbe00869fbe000000fa007d
:1006e000b6080700c048a90010002000ae080700a7
:1006f0000080fa004f03be004f02be004f01be0053
:100700004f00be003600f900004006003600f80039
:10071000809fbe00829fbe00849fbe00869fbe0059
:100720000000fa00c068a900200020009e08070011
:100730000080fa004f03be004f02be004f01be0012
:100740004f00be003600f900004006003600f800f9
:10075000809fbe00829fbe00849fbe00869fbe0019
:100760000000fa00c088a900300020008e080700b1
:100770000080fa004f03be004f02be004f01be00d2
:100780004f00be003600f900004006003600f800b9
:10079000809fbe00829fbe00849fbe00869fbe00d9
:1007a0000000fa00c608a900700020007e080700bb
:1007b0000080fa004f03be004f02be004f01be0092
:1007c0004f00be003600f900004006003600f80079
:1007d000809fbe00829fbe00849fbe00869fbe0099
:1007e0000000fa0021468000001020000080600018
:1007f0000000e00003003200c508a900c00020008e
:100800006908070020468000700060000000e000da
:1008100003003200c488a900a0002000620807007d
:1008200020468000610060000000e000030032000c
:10083000c408a900b00020005b080700ffff3700d4
:100840003600f800809fbe00829fbe00849fbe00dd
:10085000869fbe003200f8003400f800100020002f
:10086000a00188001000200000d0fe000200fa0065
:1008700091618000010f7800c08180000000e000dd
:1008800003003200c18180001e00780001000100d9
:100890000dc8a9000080fa003400f9003200f90008
:1008a0004f03be004f02be004f01be004f00be000e
:1008b0003600f900004006003600f800809fbe00b8
:1008c000829fbe00849fbe00869fbe003200f8005b
:1008d0003400f80010002000a00188001000200063
:1008e00000d0fe000200fa00a1618000010f780034
:1008f000d08180000000e00003003200d181800040
:100900001e007800010001000de8a9000080fa0037
:100910003400f9003200f9004f03be004f02be0060
:100920004f01be004f00be003600f9000040060037
:100930003600f800809fbe00829fbe00849fbe00ec
:10094000869fbe003200f8003400f800100020003e
:10095000a00188001000200000d0fe000200fa0074
:1009600061608000010f7800e08180000000e000fd
:1009700003003200e18180001e00780001000100c8
:100980000b68a9000080fa003400f9003200f90079
:100990004f03be004f02be004f01be004f00be001d
:1009a0003600f900004006003600f800809fbe00c7
:1009b000829fbe00849fbe00869fbe003200f8006a
:1009c0003400f80010002000a00188001000200072
:1009d00000d0fe000200fa0061608000010f780084
:1009e00080bb20009c04070030828000e20f500092
:1009f00005003e0040d524004082880000322000df
:100a0000508288000400370040d5240040828800ce
:100a1000003220005082880040828000a01a8800a6
:100a200030828000e40f5000020036004630ef00b4
:100a300003003700308280000000e8003082880028
:100a40000b68a9000080fa003400f9003200f900b8
:100a50004f03be004f02be004f01be004f00be005c
:100a60003600f900004006000040da000000fe00f9
:040a7000000005007d
:020000040000fa
:100a74000000fa0080082000501988008008200037
:100a8400001b880080082000b01c88001000200093
:100a9400001888000223ef000423ef000623ef0070
:100aa4000823ef0000012000501888000c23ef00f9
:100ab4000e23ef001023ef0020312000901888004f
:100ac40020212100a01888001623ef001823ef002e
:100ad4001a23ef001c23ef001e23ef002023ef0056
:100ae4002223ef002423ef002623ef002823ef0026
:100af4002c23ef0010042000101b8800200020008d
:100b0400c01c88002e23ef006423ef009a23ef001b
:100b14003023ef0000012000301b88009c23ef00ed
:100b2400c000200090198800c0002000401b8800ed
:100b3400c0002000f01c880090112000a01988003b
:100b440090012000501b880080002000001d8800b8
:100b540000042000b01988006c23ef00a223ef00ea
:100b64003823ef006e23ef00a423ef003a23ef00b5
:100b74007023ef00a623ef003c23ef0080a02100a8
:100b8400901b8800a823ef003e23ef0000302000d4
:100b9400a01b8800aa23ef004023ef007623ef0078
:100ba400ac23ef004223ef007823ef00ae23ef00e5
:100bb4004423ef00f0912900d01b8800b023ef00fc
:100bc4004623ef0000102000e01b8800b223ef0052
:100bd4004823ef00f0042000f01b8800b423ef004a
:100be4004a23ef00a0102000001c8800b623ef0069
:100bf4004c23ef008223ef00b823ef0000e224002f
:100c0400701a880000e22400201c880000e22400fe
:100c1400d01d88005023ef008623ef00bc23ef0093
:100c240080c32900901a880080c32900401c8800d2
:100c340080c32900f01d880000e22400a01a880067
:100c440000322000501c8800c023ef0000ee220078
:100c5400b01a88008c23ef00c223ef005823ef0062
:100c64008e23ef00c423ef0080252000d01a8800d3
:100c740080252000801c880080252000301e8800ec
:100c840080252000e01a880080252000901c880020
:100c940080252000401e88002be3a80061e3a80003
:100ca40097e3a8000080fa00000006000000fa00a4
:100cb4000080fa00000006000000fa0040408000b6
:100cc400680060000000e00002003200f7ff070047
:100cd4000868a9000080fa00000006000000fa007d
:100ce4000080fa00000006000000fa004040800086
:100cf400700060000000e00002003200f7ff07000f
:100d04000888a9000080fa00000006000000fa002c
:100d14000080fa00000006000000fa004140800054
:100d240000022000008060000000e00002003200a9
:100d3400f6ff070008a8a9000080fa0000000600da
:100d44000000fa000080fa00000006000000fa002b
:100d5400a140800000202000008060000000e0002e
:100d640002003200f6ff07001528a9000080fa00ef
:100d7400000006000000fa000080fa0000000600ef
:100d84000000fa00a14080000040200000806000c4
:100d94000000e00002003200f6ff07001548a90039
:100da4000080fa00000006000000fa000080fa004b
:100db400000006000000fa00a1408000008020002e
:100dc400008060000000e00002003200f6ff07002f
:100dd4001568a9000080fa00000006000000fa006f
:100de4000080fa00000006000000fa00a140800024
:100df40000002100008060000000e00002003200da
:100e0400f6ff07001588a9000080fa00000006001c
:100e14000000fa000080fa00000006000000fa005a
:100e2400a140800000002200008060000000e0007b
:100e340002003200f6ff070015a8a9000080fa009e
:100e4400000006000000fa000080fa00000006001e
:100e54000000fa00a140800000002400008060002f
:100e64000000e00002003200f6ff070015c8a900e8
:100e74000080fa00000006000400fa001007980041
:100e84000000eb00000f78001e009000f0400a0004
:100e9400100000001e00900001002100f20f20004d
:100ea40002816000c0619000e0c1610002c1710074
:100eb40042609800c808de00506190006041610003
:100ec40081407100516098001e009000c100210013
:100ed400f20f200002816000e0619000e0c1610037
:100ee40002c1710062609800c808de007061900061
:100ef4006041610081407100716098001e009000a3
:100f040021ff2200f20f200002816000806990001e
:100f1400e0c1610002c1710002689800c808de00e7
:100f2400106990006041610081407100116898006f
:100f34001e00900081ff2200f20f20000281600059
:100f4400a0699000e0c1610002c1710022689800ac
:100f5400c808de0030699000604161008140710082
:100f640031689800f18180001e009000f20f20008b
:100f740002816000e0719000e0c1610002c1710073
:100f840062709800c808de007071900060416100d2
:100f94008140710071709800018280001e009000f1
:100fa400f20f20000281600080799000e0c16100ae
:100fb40002c1710002789800c808de001079900020
:100fc40060416100814071001178980011828000b5
:100fd4001e009000f20f200002816000a0799000b2
:100fe400e0c1610002c1710022789800c808de00e7
:100ff400307990006041610081407100317898003f
:10100400918180001e009000f20f20000281600098
:10101400c0719000e0c1610002c17100427098008b
:10102400c808de0050719000604161008140710089
:1010340051709800518180001e009000f20f200032
:1010440002816000c0699000e0c1610002c17100ca
:1010540042689800c808de00506990006041610051
:101064008140710051689800618180001e009000e9
:10107400f20f200002816000e0699000e0c161008d
:1010840002c1710062689800c808de0070699000af
:101094006041610081407100716898007181800035
:1010a4001e009000f20f2000028160008071900009
:1010b400e0c1610002c1710002709800c808de003e
:1010c40010719000604161008140710011709800be
:1010d400818180001e009000f20f200002816000d8
:1010e400a0719000e0c1610002c1710022709800fb
:1010f400c808de00307190006041610081407100d9
:10110400317098000000eb00000f78000d003700ec
:101114001e0178001e007800c200dd00c00f21000f
:10112400008040001000be00c211dd00020021005a
:10113400028141000089be001e0078000000e80022
:10114400000f78001e009000c06890008180fb00b2
:10115400506890000080fb004800dd0000807000b3
:10116400800078001e007800808f5000e8ff3e0069
:101174000000eb00000f78000e0037001e0178001d
:101184001e007800c200dd008010210000804000b5
:101194001000be0063014100c211dd000200210005
:1011a400028141000089be001e0078000000e800b2
:1011b400000f78001e009000e06890008180fb0022
:1011c400706890000080fb004800dd000080700023
:1011d400800078001e007800808f5000e7ff3e00fa
:1011e400400521005a010700a18180001e009000e3
:1011f400f20f200002816000e0799000e0c16100fc
:1012040002c1710062789800c808de00707990000d
:1012140060416100814071007178980021828000f2
:101224001e009000f20f200002816000c07990003f
:10123400e0c1610002c1710042789800c808de0074
:1012440050799000604161008140710051789800ac
:10125400100020000080fa00000006000200fa00de
:101264000000eb00000f78004c30ef00f018200075
:10127400408288000032200050828800c0c02000d4
:10128400f10f200001016000610521009141780007
:10129400e0c1610002c1710082487800c800de002c
:1012a40070052100104178006041610081407100a7
:1012b40001487800c005210090407800e0c060003b
:1012c40001487800d005210090407800e0c060001b
:1012d400014878008005210090407800e0c060005b
:1012e400014878009005210090407800e0c060003b
:1012f40001487800a00521001041780080c0eb006f
:101304008140710001487800b005210090407800c8
:1013140060c16000f1c7b3008140710001487800ea
:1013240080042100f10f200001016000610621000a
:1013340091417800e0c1610002c1710082487800e7
:10134400c800de0070062100104178006041610091
:101354008140710001487800c00621009040780067
:10136400e0c0600001487800d00621009040780079
:10137400e0c06000014878008006210090407800b9
:10138400e0c0600001487800900621009040780099
:10139400e0c0600001487800a006210010417800f8
:1013a40080c0eb008140710001487800b006210044
:1013b4009040780060c16000f1c7b30081407100c3
:1013c40001487800c0042100f10f200001016000f1
:1013d4006107210091417800e0c1610002c1710000
:1013e40082487800c800de007007210010417800b0
:1013f400604161008140710001487800c00921000a
:101404009040780060c16000f1c8b3008140710071
:1014140001487800d009210090407800e0c06000c5
:101424000104a00001487800e00921009040780000
:1014340060c1600041c5b30081407100014878007b
:10144400f00921009040780060c16000d1c4b3006d
:101454008140710001487800c00c21009040780060
:10146400e0c0600001487800d00c21009040780072
:10147400e0c0600001487800e00c21009040780052
:10148400e0c0600001487800f00c21009040780032
:10149400e0c0600001487800000d21009040780011
:1014a400e0c0600001487800100d210090407800f1
:1014b400e0c0600001487800200d210090407800d1
:1014c400e0c0600001487800300d210090407800b1
:1014d400e0c0600001487800400d21009040780091
:1014e400e0c0600001487800500d21009040780071
:1014f400e0c0600001487800600d21009040780051
:10150400e0c0600001487800700d21009040780030
:10151400e0c0600001487800800d21009040780010
:10152400e0c0600001487800900d210090407800f0
:10153400e0c0600001487800a00d210090407800d0
:10154400e0c0600001487800b00d210090407800b0
:10155400e0c0600001487800500521009040780008
:101564000174a100014878004005210042fe0700f3
:10157400000f78001e0078000080fa0000000600ca
:101584000000fa0050052100904078000174a0008a
:101594000148780061828000e0bc2000808f500008
:1015a40004003e00608280006a004000608288007f
:1015b40002003700f0bc2000608288000080fa003e
:1015c4000000060000a0fe0010f0a6005c0037003a
:1015d400841f7800851f7800861f7800881f780094
:1015e4008a1f78002200f8002400f8002600f80082
:1015f4002800f8002a00f8002c00f8004400f80045
:101604004200f800040c20002402880050159000c9
:101614002a039000360598001a03900026059800c6
:101624000a039000160598001001900092007800bb
:101634001011900092801000201990008208dd00a3
:1016440030149000010d78005290c3008608c30046
:101654008708c1000500c8000080cb00d8ba9700f5
:101664008708c1000500c8000080cb00d8ba9700e5
:101674008708c1000500c8000080cb00d8ba9700d5
:101684001301c1000500c8000080cb0020149000a5
:10169400401590005290c7008608c3008708c10017
:1016a4000500c8000080cb00d8ba97008708c100a5
:1016b4000500c8000080cb00d8ba97001301c10010
:1016c4000500c8000080cb000480cd0040239000ba
:1016d4001620e600060278005023900016a0e600cb
:1016e40006027800100c9000040c7800401590005d
:1016f4001a039000260598000a0390001605980026
:10170400040d78004200f9004400f9002c00f900af
:101714002a00f9002800f9002600f9002400f90045
:101724002200f9004f0578004f0478004f03780039
:10173400cf0278004f027800a60b040000000000de
:1017440010019000920078000080fe000000060066
:10175400801f7800401090000018eb000018eb0088
:101764000008eb004f007800801f780050109000b4
:101774000018eb000018eb000018eb000008eb0069
:101784004f00780000000600801f7800811f780059
:1017940050109000011878000118780001187800a2
:1017a40001087800cf0078004f007800801f78008f
:1017b400821f780040109000021878000218780008
:1017c400020878004f0178004f00780000000600fe
:1017d40000a0fe0010f0a60030003700841f78003f
:1017e400861f7800881f78008a1f78002200f8007e
:1017f4002400f8002600f8002800f8002a00f80069
:101804002c00f8004400f8004200f800040c20000a
:1018140024028800100190009200780010119000ba
:1018240092801000201990008208dd00701b900047
:1018340060199000010278001301c1000200c80081
:101844000400cd00402390001620e6000602780034
:101854005023900016a0e60006027800100c9000b9
:10186400040c78004200f9004400f9002c00f9004f
:101874002a00f9002800f9002600f9002400f900e4
:101884002200f9004f0578004f0478004f037800d8
:101894004f027800540c0400000000001001900076
:1018a400920078000080fe00000006000000fa00ac
:1018b400002bef000006200010588800042bef00d6
:1018c400062bef00082bef0000202c005058880056
:1018d4000c2bef000e2bef00102bef00122bef0060
:1018e400142bef0010002000005988008001200014
:1018f40010598800382bef00402bef00482bef00e5
:10190400502bef003a2bef00422bef004a2bef0055
:10191400522bef003c2bef00442bef004c2bef003d
:10192400542bef003e2bef00462bef004e2bef0025
:10193400562bef0000402000505b88000040200040
:10194400705b880000402000905b8800004020000d
:10195400b05b8800a02bef00a42bef00a82bef00b6
:10196400ac2bef00d02bef00d22bef00d42bef00e9
:10197400d82bef0000302000b05e8800003020003b
:10198400d05e8800f02bef00f22bef00022cef006a
:1019940060d520004700070040d820005d00070004
:1019a40080d9200065000700c0da20006d00070020
:1019b4000dc8a9002dc8a8000de8a9002de8a800ad
:1019c4000b68a9002b68a8001160800000f02000bb
:1019d400010070001060880001eba80027000700d8
:1019e4001000070050002000005c8800822bef00ec
:1019f400842bef00862bef00882bef008a2bef005f
:101a04008c2bef008e2bef00902bef0000102000aa
:101a1400905c880010002000a05c88000080fa0020
:101a2400000006000000fa00000ca80000000000fe
:101a34000160800000102000008060000000e000d1
:101a4400fbff32000a0ba8000080fa000000060029
:101a54000000fa00002ca8000000000001608000d3
:101a640000202000008060000000e000fbff320046
:101a74000a2ba8000080fa00000006000000fa000b
:101a840000eca800000000000160800000002800b5
:101a9400008060000000e000fbff32000aeba800b9
:101aa4000080fa00000006000000fa000080fa003e
:101ab400000006000200fa00000f78001e00780003
:101ac400b08188000080fa00000006000000fa00df
:101ad4005140800000402000008060000000e000d1
:101ae40006003200b08180000000e00002003200f5
:101af400b0818000000001000b48a9000080fa00ba
:101b0400000006000200fa00000f78000080fa00ce
:101b1400000006000200fa00000f78001e007800a2
:101b2400c08188000080fa00000006000200fa006c
:101b3400000f78000080fa00000006000200fa009e
:101b4400000f78001e007800d08188000080fa0021
:101b5400000006000200fa00000f78000080fa007e
:101b6400000006000200fa00000f78001e00780052
:101b7400e08188000080fa00000006000000fa00fe
:101b840021000700802cef0050052000206488000d
:101b9400a0082000306488008a2cef0080212800ef
:101ba40040648800922cef00902cef00942cef00fe
:101bb4008c2cef00007d2000706488000e0007006c
:101bc4000080fa00000006000000fa004064800073
:101bd40077800a00000000000080fb0000f0a700ee
:101be4000000ea000000ea004f00de000040780038
:101bf4000080fa00000006000000fa0081eca80052
:101c04000080fa00000006000000fa0081eca90040
:101c14000080fa00000006000200fa00000f7800bd
:101c24001e00780000407800674060000080fb00e0
:101c3400670060004300dd004264800071fc2f00f7
:101c44008100610001007000406488000080fa0097
:101c5400000006000200fa00000f78009e007800e1
:101c6400716488000080fa00000006000200fa0097
:101c7400000f78009e007800616488000080fa00fc
:101c8400000006000000fa00892ca8000080fa0079
:101c9400000006000000fa00892ca9000080fa0068
:101ca400000006000200fa00000f78001e00780011
:101cb400004078006f4060000080fb006f0060000f
:101cc4008264800001ff2f00810061000100700028
:101cd400806488000080fa00000006000200fa0018
:101ce400000f78001e007800004078006f4060000c
:101cf4000080fb006f0060004800dd00826480000b
:101d0400f10f2f00810061000100700080648800e1
:101d14000080fa00000006000200fa00000f7800bc
:101d24001e007800004078006f4060000080fb00d7
:101d34006f0060004400dd0082648000f1f02f0039
:101d44008100610001007000806488000080fa0056
:101d5400000006000200fa00000f78001e00780060
:101d6400004078006f4060000080fb004c00dd0004
:101d740082648000f1ff2000810061000100700096
:101d8400806488000080fa00000006000000fa0069
:101d94000080fa00000006000000fa0041408000c4
:101da40000002200008060000000e0000200320019
:101db400f6ff070009a8a9000080fa000000060049
:101dc4000000fa00007c80000080fa000000060099
:101dd4000200fa00faff0700000f78001e007800e6
:101de400240007000004e000020032000000280084
:101df400710007001e0078002a0007000004e000bc
:101e040002003200000024006b0007001e0078006e
:101e1400320007000004e00002003200002020002d
:101e2400650007001e0078003a0007000004e00087
:101e340002003200000820005f0007001e00780046
:101e4400420007000004e000020032000004200009
:101e5400590007001e0078004a0007000004e00053
:101e64000200320000012000530007000080fa0045
:101e7400000006000400fa00100798000040eb0080
:101e8400004f78001e0090000000e00002003d00ba
:101e940010c0b300004f78001e4078000080fa00a4
:101ea400000006000400fa00100798000040eb0050
:101eb400004f78009e009000000024000080600025
:101ec4000000e0000200320010c0b300004f7800b0
:101ed4001e4078000080fa00000006000400fa00aa
:101ee400100798000040eb00004f78009e0090001f
:101ef40000202000008060000000e00002003200aa
:101f040010c0b300004f78001e4078000080fa0033
:101f1400000006000400fa00100798000040eb00df
:101f2400004f78009e0090000008200000806000b0
:101f34000000e0000200320010c0b300004f78003f
:101f44001e4078000080fa00000006000400fa0039
:101f5400100798000040eb00004f78009e009000ae
:101f640000042000008060000000e0000200320055
:101f740010c0b300004f78001e4078000080fa00c3
:101f8400000006000400fa00100798000040eb006f
:101f9400004f78001e009000700060000000e00018
:101fa4000200320010c0b300004f78001e407800d9
:101fb4000080fa00000006000200fa00000f78001a
:101fc4009e80ea00007c800000806000007c880025
:101fd4000080fa00000006000000fa00802fef00e5
:101fe4000080fa00000006000000fa000421ef005f
:101ff400f0702200400888002010280000088800a3
:10200400708280000000e00002003a00800b210092
:10201400240007000028a9002028a800801121001e
:102024008040eb00014878000080fa0000000600c0
:102034000200fa00000f78009e0078004108880032
:10204400801121008040eb00014878000080fa00f4
:10205400000006000000fa00400880000080fa003a
:10206400000006000200fa00000f78009e007800cd
:1020740021088800801121008040eb00014878008d
:102084000080fa00000006000000fa00200880002a
:102094000080fa00000006000000fa000080fa0048
:1020a400000006000200fa00000f78002028a900b2
:1020b4009e007800718288002028a8000080fa0021
:1020c400000006000000fa00801121008040eb00af
:1020d400014878002028a80001e1a8000080fa0047
:1020e400000006000000fa0001e1a9002028a90070
:1020f4000080fa00000006000200fa0080112100ae
:10210400104f78001e4078000004e0000300320005
:10211400801121008040eb00014878001e407800c7
:102124000080fa00000006000000fa00901121006f
:10213400104078000080fb000080fa0000000600d8
:102144000000fa00901121008040eb000148780063
:102154000080fa00000006000000fa001c30ef00c6
:102164001e30ef000080fa00000006000000fa00b4
:10217400e08080000000e800e08088000028a900da
:102184009a01070020d0bf000040e80020f0b7000b
:1021940020d0bf00e94f500002003600960107002e
:1021a4002070ef000080fa00000006000000fa0032
:1021b400f1808000e0808000808f50002500320094
:1021c400f08080000000e800f08088008d010700a6
:1021d400108180000000e8001081880010818000d8
:1021e400e90f50001c0036002230ef008801070080
:1021f400208180000000e800208188002081800088
:10220400e90f5000140036002430ef00830107006a
:10221400308180000000e800308188003081800037
:10222400e90f50000c0036002630ef007e01070055
:10223400408180000000e8004081880040818000e7
:10224400e90f5000040036002830ef007901070040
:1022540001003700860107000080fa000000060034
:102264000000fa001c30ef001e30ef00cfff070023
:10227400feff37000000fa00062eef00222eef00ca
:102284007001200010708800c03e2000f0708800ab
:102294000c2eef00282eef000a2eef00262eef0062
:1022a400082eef00242eef00f001200000708800bb
:1022b400e0082000e07088000000eb0051052000d9
:1022c400b1468800a10a2000b14688000068880051
:1022d40090c2b3001cedb700416c8000f00f2c00dd
:1022e400808060000090220001007000406c880033
:1022f400016c800000fc2f0080806000b00320008f
:1023040001007000006c8800416c800000fc2f000c
:10231400808060008002200001007000406c880012
:10232400d0c2b3005fedb700c0c2b30060edb70028
:10233400f0c2b30062edb700e0c2b30061edb700d4
:10234400216c8000f00f2c0080806000004022008f
:1023540001007000206c88000080200051052000de
:10236400b1468800a10a2000b146880000688800b0
:102374000080fa00000006000000fa0010002300ac
:10238400307c8800800c2000407c88008c2fef007b
:1023940020022000507c880010102800707c8800e7
:1023a400d0072000807c880010222000907c8800c8
:1023b400b82fef00ba2fef00be2fef00002def0073
:1023c400a02fef00a42fef00a62fef00a82fef00ff
:1023d400aa2fef00ae2fef00b02fef00b22fef00c7
:1023e4001200200080072000a109200053f82000db
:1023f40080497800814978008249780012002000e1
:10240400600420007105200043f820008049780012
:10241400814978008249780000000000207c800017
:10242400610060000000e000fcff3a0000000000d2
:10243400217c800000022000008060000000e00099
:10244400fbff32000080fa00000006000000fa00e2
:10245400707c8000ee800a00000000000080fb0019
:1024640000f0a7000000ea000000ea004f00de00d0
:0c247400004078000080fa000000060024
:020000040000fa
:102480001811000002000000800000004e10000043
:102490000200000080000000dc10000020000000ae
:1024a00080000000501000000200000082000000c8
:1024b000ffff000036100000080000008000000050
:1024c000fc1000001c000000820000000500fb0062
:1024d0005e0000009b5e020000b77900fdff240053
:1024e00049feff007aaffd00ff6eba00feffa800b4
:1024f0005700000054100000880000008000000019
:10250000001000001c000000800000002a100000e5
:102510000c00000082000000030004000003000023
:102520000400030000ff7f00f22f00000e000000f7
:10253000800000003e100000080000008000000045
:102540004610000008000000800000001c10000081
:102550000e00000080000000521000000200000089
:082560008000000000000000f3
:020000040000fa
:102568000000fa00d9e0a8000080fa000000060088
:102578000000fa0000082000c0068800da20ef00fa
:1025880000002500e00688002000220000078800df
:102598008000280010078800f1ff07000080fa007b
:1025a800000006000000fa000080fa0000000600a3
:1025b8000000fa000080fa00000006000000fa009f
:1025c800a140800000002800008060000000e000ba
:1025d80002003200f3ff070015e8a9000080fa00a6
:1025e800000006000000fa00b040800068006000ab
:1025f8000000e00002003200edff07001668a900a5
:102608000080fa00000006000000fa00c006800002
:1026180066800a00000000000080fb0000f0a700b0
:102628000000ea000000ea004f00de0000407800e9
:102638000080fa00000006000000fa00c1e0a800cf
:102648000080fa00000006000000fa0000082000e0
:1026580000068800c220ef0000022500200688003e
:102668008080200040068800000121005006880074
:10267800f1ff07000080fa00000006000000fa00e1
:102688000080fa00000006000000fa000080fa004e
:10269800000006000000fa007140800000002100e0
:1026a800008060000000e00002003200f3ff070035
:1026b8000f88a9000080fa00000006000000fa0058
:1026c800b0408000620060000000e00002003200bc
:1026d800edff07001628a9000080fa000000060098
:1026e8000000fa000006800066800a000000000072
:1026f8000080fb0000f0a7000000ea000000ea00ec
:102708004f00de00004078000080fa00000006005c
:102718000000fa00cde0a8000080fa0000000600e2
:102728000000fa002008200060068800ce20ef0094
:10273800000225008006880080802000a00688000e
:1027480000082800b0068800f1ff07000080fa00a2
:10275800000006000000fa000080fa0000000600f1
:102768000000fa000080fa00000006000000fa00ed
:102778007140800000002200008060000000e0003e
:1027880002003200f3ff07000fa8a9000080fa003a
:10279800000006000000fa00b040800064006000fd
:1027a8000000e00002003200edff07001648a90013
:1027b8000080fa00000006000000fa0060068000b1
:1027c80066800a00000000000080fb0000f0a700ff
:1027d8000000ea000000ea004f00de000040780038
:1027e8000080fa00000006000000fa000080fa00ed
:1027f800000006000000fa000080fa000000060051
:102808000000fa000080fa00000006000000fa004c
:102818000080fa00000006000000fa000080fa00bc
:10282800000006000000fa000080fa000000060020
:102838000000fa001071800044800a0000000000c7
:102848000004a200614060000080fb00610060009d
:102858004400dd00117180000140a10001007000fa
:10286800107188000080fa00000006000000fa00dd
:102878000080fa00000006000200fa00000f78004d
:1028880021028000200f2000008060001e007000e0
:10289800200288000080fa00000006000000fa000c
:1028a800c3e8a80000000000000000000080fa0053
:1028b800000006000000fa006dfe0700adfe0700ec
:1028c8000c00070060ff0700abfc0700f6fb0700e1
:1028d80066f8070026ff070091ff0700c1fd070003
:1028e800eeff070000022000e3ff07000080fa0067
:1028f800000006000000fa00b1438000f0ff280045
:102908000080600000c0a000b043880061438000e0
:10291800f0ff2800808060000000250001007000a2
:1029280060438800b1438000f08f2f000080600072
:102938000080a000b043880001428000f0f82f001a
:1029480080806000000320000100700000428800c1
:102958000080fa00000006000000fa003efa0700b6
:10296800d4ff0700f1188000f0f02f00008060000d
:102978000060a000f01888001fa3a900f1188000cb
:1029880080ff2f00008060000000a000f018880081
:102998001fe3a8000e00070030fe0700ffff370006
:1029a8000200fa00000f78009e00780081828800fb
:1029b800ffff37000000fa00c00d210080077800f3
:1029c800400f2100000188000080fa000000060086
:1029d8000000fa00dffd07000080fa000000060092
:020000040000fa
:020000040001f9
:045e0000ffffff00a1
:020000040000fa
:020000040001f9
:045e2000ffffff0081
:020000040000fa
:020000040001f9
:045e300078ffff00f8
:020000040000fa
:020000040001f9
:045e38007bffff00ed
:020000040000fa
:020000040001f9
:045e40007f7fff0061
:020000040000fa
:020000040001f9
:045e4800ffffff0059
:020000040000fa
:020000040001f9
:045e5000dfffff0071
:020000040000fa
:020000040001f9
:045e58000000ff0047
:020000040000fa
:020000040001f9
:045e60000000ff003f
:020000040000fa
:020000040001f9
:045e68000000ff0037
:020000040000fa
:020000040001f9
:045e70000000ff002f
:020000040000fa
:020000040001f9
:045e7800ffffff0029
:020000040000fa
:020000040001f9
:045e8000fffcff0024
:020000040000fa
:020000040001f9
:045e8800ffffff0019
:00000001FF
